:020000040000FA
:10000000000002287C30FE000130FF00803000003C
:100010000000FF200000000083160000AD007F08F4
:10002000AC007E30AE000130AF00831600002C081B
:10003000B0002D08B100FF30AC07031CAD03310840
:10004000300403199A2804302E07B000B101B10D15
:100050002F08B1073008FE003108FF008030000093
:100060000000FF200000000083160000B3007F089E
:10007000B2002E08FE002F08FF00803000000000B4
:10008000FF200000000083160000B500B1007F08CB
:10009000B000B40002302E07B000B101B10D2F083E
:1000A000B1073008FE003108FF008030000000007A
:1000B000FF200000000083160000B100B7007F0899
:1000C000B600B000831600003208B6003308B7004F
:1000D000FF30B207031CB303370836040319932813
:1000E0003408FE003508FF008030000000002021A9
:1000F0000000000083160000B600300883120313CE
:100100008400831383160000311883173608831286
:100110000313800083160000B40A0319B50AB00A5D
:100120000319B10A6228063083160000AE070318CF
:10013000AF0A1528000000009E280800083083162A
:100140008500831285018316A0018312851DAA28CC
:100150008316A00A83162008013A031DFB285E219E
:100160008316A00001302002031CFB280730200268
:100170000318FB28A003003083128A00C6308316C0
:100180002007031CC52883128A0A8200CC28D428A1
:10019000DC28E428EC28F428013083128500F430B0
:1001A000FF0001303321FB28023083128500F43038
:1001B000FF0001303321FB28043083128500F43026
:1001C000FF0001303321FB28053083128500F43015
:1001D000FF0001303321FB28063083128500F43004
:1001E000FF0001303321FB28073083128500F430F3
:1001F000FF000130332183128501A3280800003A53
:1002000003190729803A03191129FF0100347E08D8
:10021000840083137F1883170008FF00840A0008F6
:100220000800000000002E21FD00FE0FFF03FF0A62
:10023000000000002E21FC007D08FF007C08080063
:10024000003A03192729803A03192E2900347E0821
:10025000840083137F188317000808007F088A0032
:100260007E08820008008316A2007F08A100A30177
:10027000A401831622082402031D40292108230219
:1002800003185D29FB308316A5000430A600FF305B
:1002900083162507A700FF30A80026080318260F9D
:1002A000A8072708A5002808A60028082704031D7A
:1002B0004729A30A0319A40A392908008316380814
:1002C0008316A90003108316380C8316AA00A9060A
:1002D0000130A9052908AB0003102B0DA90003105C
:1002E000A90D2908AB002A048316B800073038028C
:1002F00003185E2938080800023400348A340134B7
:10030000B8340034013400348B340134B93400344F
:0803100001340034083400340C
:02400E00D73F9A
:00000001FF
