:020000040000FA
:1000000000000228F430FE000130FF0080300000C4
:10001000000073210000000083160000B5007F0877
:10002000B400F630B6000130B70083160000340883
:10003000B8003508B900FF30B407031CB503390810
:10004000380403199A2804303607B800B901B90DED
:100050003708B9073808FE003908FF008030000073
:10006000000073210000000083160000BB007F0821
:10007000BA003608FE003708FF008030000000009C
:1000800073210000000083160000BD00B9007F0846
:10009000B800BC0002303607B800B901B90D370806
:1000A000B9073808FE003908FF0080300000000062
:1000B00073210000000083160000B900BF007F0814
:1000C000BE00B800831600003A08BE003B08BF001F
:1000D000FF30BA07031CBB033F083E0403199328F3
:1000E0003C08FE003D08FF00803000000000942125
:1000F0000000000083160000BE00380883120313BE
:100100008400831383160000391883173E08831276
:100110000313800083160000BC0A0319BD0AB80A45
:100120000319B90A6228063083160000B6070318BF
:10013000B70A1528000000009E2808000830831622
:10014000850083128501E1308316A000AC30A10048
:100150008316A2018312851DAF288316A20A831677
:100160002208013A031D22290030FD00B430FE00B0
:100170002008FF002108D2218316A1007F08A000DB
:100180000630FD000030FE002008FF002108262177
:100190008316A3007F08A200A20A0319A30A003055
:1001A0002302031DD52801302202031C222900301E
:1001B00083162302031DDE2807302202031822299A
:1001C0008316A203003083128A00ED3083162207C3
:1001D000031CEC2883128A0A8200F328FB280329D7
:1001E0000B2913291B29013083128500C830FF0019
:1001F0000030A7212229023083128500C830FF0079
:100200000030A7212229043083128500C830FF0066
:100210000030A7212229053083128500C830FF0055
:100220000030A7212229063083128500C830FF0044
:100230000030A7212229073083128500C830FF0033
:100240000030A72183128501A8280800831200002E
:10025000A1007F08A0007E08A3007D08A200A401E1
:10026000A5018312000023088039031D0130A60078
:100270002608031D52290310A20DA30D23082102F5
:10028000031D44292208200203184C29031083125D
:100290000000A30CA20C522983120000A50A250815
:1002A000A40031298312000023082102031D5A29CA
:1002B00022082002031C6429831200002208A002E5
:1002C0002308031C230FA102031083120000A30CB8
:1002D000A20C2408A500A4032508031D5229200808
:1002E000FF0021080800003A03197B29803A03190E
:1002F0008529FF0100347E08840083137F1883174B
:100300000008FF00840A0008080000000000A22185
:10031000FD00FE0FFF03FF0A00000000A221FC0009
:100320007D08FF007C080800003A03199B29803AE9
:100330000319A22900347E08840083137F188317D1
:10034000000808007F088A007E08820008008316E3
:10035000A5007F08A400A601A7018316250827028F
:10036000031DB429240826020318D129FB30831663
:10037000A8000430A900FF3083162807AA00FF3028
:10038000AB0029080318290FAB072A08A8002B087F
:10039000A9002B082A04031DBB29A60A0319A70AD2
:1003A000AD2908008316AD007F08AC007E08AF00C1
:1003B0007D08AE0001302C05B000B10103102D0CFA
:1003C000B3002C0CB2003008013A031DEF293108AC
:1003D000003A031DEF292E08B2062F08B306831634
:1003E0003208FF003308080001340034FC340134C3
:0A03F00027340034013400340034D7
:02400E00D73F9A
:00000001FF
