:020000040000FA
:10000000000002284A30FE000130FF00803000006E
:100010000000EB200000000083160000A1007F0814
:10002000A0004C30A2000130A3008316000020087D
:10003000A4002108A500FF30A007031CA103250888
:10004000240403199A2804302207A400A501A50D51
:100050002308A5072408FE002508FF0080300000C3
:100060000000EB200000000083160000A7007F08BE
:10007000A6002208FE002308FF00803000000000D8
:10008000EB200000000083160000A900A5007F08F7
:10009000A400A80002302207A400A501A50D230892
:1000A000A5072408FE002508FF008030000000009E
:1000B000EB200000000083160000A500AB007F08C5
:1000C000AA00A400831600002608AA002708AB0097
:1000D000FF30A607031CA7032B082A040319932843
:1000E0002808FE002908FF008030000000000C21D5
:1000F0000000000083160000AA00240883120313E6
:100100008400831383160000251883172A0883129E
:100110000313800083160000A80A0319A90AA40A81
:100120000319A50A6228063083160000A2070318E7
:10013000A30A1528000000009E2808000830831636
:1001400085008312850183128519A3280530831643
:10015000AC00003083128A00B43083162C07031CD5
:10016000B32883128A0A8200BA28C228CA28D22851
:10017000DA28E2280130831285000F30FF000030BA
:100180001F21A3280230831285000F30FF000030AA
:100190001F21A3280430831285000F30FF00003098
:1001A0001F21A3280530831285000F30FF00003087
:1001B0001F21A3280630831285000F30FF00003076
:1001C0001F21A3280730831285000F30FF00003065
:1001D0001F21A3280800003A0319F328803A0319C5
:1001E000FD28FF0100347E08840083137F188317E5
:1001F0000008FF00840A00080800000000001A211F
:10020000FD00FE0FFF03FF0A000000001A21FC00A2
:100210007D08FF007C080800003A03191329803A82
:1002200003191A2900347E08840083137F1883176A
:10023000000808007F088A007E08820008008316F4
:10024000AE007F08AD00AF01B00183162E0830026A
:10025000031D2C292D082F0203184929FB30831672
:10026000B1000430B200FF3083163107B300FF3015
:10027000B40032080318320FB4073308B100340851
:10028000B20034083304031D3329AF0A0319B00A3E
:10029000252908000134003452340134B5340034C7
:0602A000013400340034BB
:00000001FF
