:020000040000FA
:10000000000002284E30FE000130FF00803000006A
:100010000000EF200000000083160000A1007F0810
:10002000A0005030A2000130A30083160000200879
:10003000A4002108A500FF30A007031CA103250888
:10004000240403199A2804302207A400A501A50D51
:100050002308A5072408FE002508FF0080300000C3
:100060000000EF200000000083160000A7007F08BA
:10007000A6002208FE002308FF00803000000000D8
:10008000EF200000000083160000A900A5007F08F3
:10009000A400A80002302207A400A501A50D230892
:1000A000A5072408FE002508FF008030000000009E
:1000B000EF200000000083160000A500AB007F08C1
:1000C000AA00A400831600002608AA002708AB0097
:1000D000FF30A607031CA7032B082A040319932843
:1000E0002808FE002908FF008030000000001021D1
:1000F0000000000083160000AA00240883120313E6
:100100008400831383160000251883172A0883129E
:100110000313800083160000A80A0319A90AA40A81
:100120000319A50A6228063083160000A2070318E7
:10013000A30A1528000000009E2808000830831636
:1001400085008312850183128519E92805308316FD
:10015000AC00003083128A00B43083162C07031CD5
:10016000B32883128A0A8200BA28C228CA28D22851
:10017000DA28E2280130831285000030FF00803049
:100180002321E9280230831285000030FF008030EF
:100190002321E9280430831285000030FF008030DD
:1001A0002321E9280530831285000030FF008030CC
:1001B0002321E9280630831285000030FF008030BB
:1001C0002321E9280730831285000030FF008030AA
:1001D00023210030FF00E1302321A3280800003A4A
:1001E0000319F728803A03190129FF0100347E081A
:1001F000840083137F1883170008FF00840A000817
:100200000800000000001E21FD00FE0FFF03FF0A92
:10021000000000001E21FC007D08FF007C08080093
:10022000003A03191729803A03191E2900347E0861
:10023000840083137F188317000808007F088A0052
:100240007E08820008008316AE007F08AD00AF0173
:10025000B00183162E083002031D30292D082F020D
:1002600003184D29FB308316B1000430B200FF3073
:1002700083163107B300FF30B40032080318320F81
:10028000B4073308B1003408B20034083304031D46
:100290003729AF0A0319B00A2929080001340034AC
:0E02A00056340134B5340034013400340034D7
:00000001FF
