:100000000C9452010C947A010C947A010C947A01AC
:100010000C947A010C947A010C947A010C947A0174
:100020000C947A010C947A010C947A010C947A0164
:100030000C947A010C947A010C947A010C947A0154
:100040000C942F060C947A010C949F060C9479065C
:100050000C947A010C947A010C947A010C947A0134
:100060000C947A010C947A01000000000000005FFB
:1000700000000007000700147F147F14242A7F2A41
:10008000122313086462364955225000050300000C
:10009000001C2241000041221C0014083E081408E4
:1000A000083E0808005030000008080808080060F2
:1000B00060000020100804023E5149453E00427F86
:1000C000400042615149462141454B311814127F8D
:1000D0001027454545393C4A494930017109050316
:1000E0003649494936064949291E0036360000007E
:1000F0005636000008142241001414141414004150
:100100002214080201510906324979413E7E11113B
:10011000117E7F494949363E414141227F4141227A
:100120001C7F494949417F090909013E4149497AF2
:100130007F0808087F00417F41002040413F017F48
:10014000081422417F404040407F020C027F7F0420
:1001500008107F3E4141413E7F090909063E415159
:10016000215E7F09192946464949493101017F012C
:10017000013F4040403F1F2040201F3F4038403F4C
:100180006314081463070870080761514945430068
:100190007F41410002040810200041417F00040219
:1001A0000102044040404040000102040020545439
:1001B00054787F48444438384444442038444448C0
:1001C0007F3854545418087E0901020C5252523E92
:1001D0007F0804047800447D40002040443D007FB7
:1001E0001028440000417F40007C041804787C08FB
:1001F00004047838444444387C1414140808141453
:10020000187C7C080404084854545420043F44409B
:10021000203C4040207C1C2040201C3C4030403C86
:1002200044281028440C5050503C4464544C440022
:100230000836410000007F00000041360800100829
:100240000810080000000000000000002300260045
:10025000290000000000240027002A000000000000
:10026000250028002B0004040404040404040202F2
:100270000202020203030303030301020408102025
:100280004080010204081020010204081020000030
:100290000008000201000003040700000000000045
:1002A0000000D10611241FBECFEFD8E0DEBFCDBFC6
:1002B00011E0A0E0B1E0E4EBFEE102C005900D9298
:1002C000AC36B107D9F722E0ACE6B1E001C01D922F
:1002D000A03CB207E1F711E0C2E5D1E004C02197EC
:1002E000FE010E94520FC135D107C9F70E947D0758
:1002F0000C94580F0C94000080E480937C00809153
:100300007A00806480937A0080917A0086FDFCCF29
:1003100080917800909179000895833081F028F4DD
:10032000813099F08230A9F008958730A9F08830A3
:10033000C9F08430B1F4809180008F7D03C080913A
:1003400080008F7780938000089584B58F7784BD77
:10035000089584B58F7DFBCF8091B0008F77809317
:10036000B00008958091B0008F7DF9CF1F93CF9397
:10037000DF93282F30E0F901E257FD4F8491F90116
:10038000E658FD4FD491F901EA59FD4FC491CC23B1
:10039000A9F0162F81110E948D01EC2FF0E0EE0FD5
:1003A000FF1FE45AFD4FA591B4918FB7F894EC91DB
:1003B000111108C0D095DE23DC938FBFDF91CF9160
:1003C0001F910895DE2BF8CFCF93DF9390E0FC01CF
:1003D000E658FD4F24918A599D4FFC018491882352
:1003E000D1F090E0880F991FFC01EE5AFD4FA591C6
:1003F000B491FC01E45AFD4FC591D49161110EC036
:100400009FB7F8948C91E22FE0958E238C932881EE
:10041000E223E8839FBFDF91CF9108958FB7F894CF
:10042000EC91E22BEC938FBFF6CF3FB7F89480911D
:10043000850190918601A0918701B091880126B530
:10044000A89B05C02F3F19F00196A11DB11D3FBF0C
:10045000BA2FA92F982F8827BC01CD01620F711DDB
:10046000811D911D42E0660F771F881F991F4A95D5
:10047000D1F708958F929F92AF92BF92CF92DF9261
:10048000EF92FF920E9415024B015C0184E6C82E98
:10049000D12CE12CF12C0E941502681979098A09E6
:1004A0009B09683E734081059105A8F321E0C21ABB
:1004B000D108E108F10888EE880E83E0981EA11C9F
:1004C000B11CC114D104E104F10429F7FF90EF90AD
:1004D000DF90CF90BF90AF909F908F900895AF9294
:1004E000BF92CF92DF92EF92FF920F931F93CF9321
:1004F000DF936C017B018B01040F151FEB015E0183
:10050000AE18BF08C017D10759F06991D601ED9117
:10051000FC910190F081E02DC6010995892B79F7B6
:10052000C501DF91CF911F910F91FF90EF90DF9068
:10053000CF90BF90AF900895FC01538D448D252F2F
:1005400030E0842F90E0821B930B541710F0CF966D
:10055000089501970895FC01918D828D981761F09F
:10056000A28DAE0FBF2FB11D5D968C91928D9F5FB6
:100570009F73928F90E008958FEF9FEF0895FC0195
:10058000918D828D981731F0828DE80FF11D858D48
:1005900090E008958FEF9FEF0895FC01918D228DDB
:1005A000892F90E0805C9F4F821B91098F73992760
:1005B000089589E891E00E94CD0221E0892B09F499
:1005C00020E0822F089580E090E0892B29F00E949E
:1005D000D90281110C9400000895FC01A48DA80F8C
:1005E000B92FB11DA35ABF4F2C91848D90E0019675
:1005F0008F739927848FA689B7892C93A089B18995
:100600008C91837080648C93938D848D981306C035
:100610000288F389E02D80818F7D80830895EF9299
:10062000FF920F931F93CF93DF93EC0181E0888FAC
:100630009B8D8C8D98131AC0E889F989808185FF7C
:1006400015C09FB7F894EE89FF896083E889F9891E
:1006500080818370806480839FBF81E090E0DF9120
:10066000CF911F910F91FF90EF900895F62E0B8D73
:1006700010E00F5F1F4F0F731127E02E8C8D8E112E
:100680000CC00FB607FCFACFE889F989808185FF95
:10069000F5CFCE010E94ED02F1CFEB8DEC0FFD2FD7
:1006A000F11DE35AFF4FF0829FB7F8940B8FEA8950
:1006B000FB8980818062CFCFCF93DF93EC01888D5F
:1006C0008823B9F0AA89BB89E889F9898C9185FDCD
:1006D00003C0808186FD0DC00FB607FCF7CF8C915B
:1006E00085FFF2CF808185FFEDCFCE010E94ED0224
:1006F000E9CFDF91CF910895089590E080E00895CB
:100700008F929F92AF92BF92CF92DF92EF92FF9221
:100710006B017C018091740181110FC080E090E039
:10072000A8ECB1E48093700190937101A0937201E1
:10073000B093730181E0809374018FB7F894409176
:1007400026025091270260912802709129028FBFE2
:1007500080916C0190916D01A0916E01B0916F013B
:10076000481B590B6A0B7B0B44365105610571051B
:1007700008F456C08C599F4FAF4FBF4F80936C0108
:1007800090936D01A0936E01B0936F018090700102
:1007900090907101A0907201B090730120E030E060
:1007A00048EC52E4C701B6010E94B10E20E030E0EF
:1007B0004AE754E40E94520D20E030E040E251E468
:1007C0000E94520D2AE037ED43E65FE30E94520D8E
:1007D000A50194010E94E10C6B017C0120E030E056
:1007E00048EC51E4C501B4010E94E00C9B01AC014E
:1007F000C701B6010E94E00C27E137EB41ED58E359
:100800000E94E00C20E030E040EA50E40E94E00C5E
:1008100060937001709371018093720190937301E2
:1008200060917001709171018091720190917301DA
:10083000FF90EF90DF90CF90BF90AF909F908F9000
:100840000895EF92FF920F931F93CF93DF93EC01E4
:10085000042F8E810E94B60160E088850E94B60157
:10086000FC80ED8018E0602F661F6627661F8E2DC6
:100870000E94B601000F61E08F2D0E94B60160E07A
:100880008F2D0E94B601115071F761E08885DF91CC
:10089000CF911F910F91FF90EF900C94B601CF93E1
:1008A000DF93C2E7D2E01C8690E06B8529E3629F6C
:1008B000612D1124669570E06F5F7F4F0E94230FBA
:1008C0008D8740E860E0CE010E9421044D854064A0
:1008D00060E0CE01DF91CF910C942104FB010190E7
:1008E0000020E9F73197AF01461B570BDC01ED9172
:1008F000FC910280F381E02D09948F929F92AF9238
:10090000BF92EF92FF920F931F93CF93DF93CDB7D8
:10091000DEB7A1970FB6F894DEBF0FBECDBF7C0146
:10092000FA01CB0119A2223008F42AE08E010F5DF2
:100930001F4F822E912CB12CA12CBF01A501940137
:100940000E94AF0CF901CA016A300CF5605DD80154
:100950006E938D01232B242B252B79F790E080E0DB
:10096000109721F0BD01C7010E946E04A1960FB639
:10097000F894DEBF0FBECDBFDF91CF911F910F91D5
:10098000FF90EF90BF90AF909F908F900895695C1B
:10099000DECF2F923F924F925F926F927F928F9213
:1009A0009F92AF92BF92CF92DF92EF92FF921F93EE
:1009B000CF93DF93EC016A017B01722EAB019601AC
:1009C000CB01B6010E941E0F6EE171E0811126C0BD
:1009D00046015701E894B7F82FEF3FEF4FE75FE785
:1009E000C501B4010E941E0F81110CC02FEF3FEF13
:1009F0004FE75FE7C501B4010E944D0D62E271E06F
:100A0000181664F02FEF3FEF4FE75FE4C701B60120
:100A10000E94AC0E1816B4F466E271E0CE01DF91CC
:100A2000CF911F91FF90EF90DF90CF90BF90AF904C
:100A30009F908F907F906F905F904F903F902F90FE
:100A40000C946E042FEF3FEF4FE75FECC701B60148
:100A50000E944D0D87FDE0CF20E030E0A901C701E5
:100A6000B6010E944D0D312C212C87FF0DC0E8816D
:100A7000F9810190F081E02D6DE2CE0109951C0114
:100A8000F7FAF094F7F8F09410E060E070E080E09E
:100A90009FE3711641F020E030E040E251E40E9413
:100AA000520D1F5FF6CFA70196010E94E10C2B01AA
:100AB0003C010E94CB0D4B015C012AE0BC01A4016A
:100AC000CE010E947D047C01E20CF31C1123E1F1B4
:100AD000C501B4010E94FA0D9B01AC01C301B20132
:100AE0000E94E00C4B015C01E881F9810190F081EA
:100AF000E02D6EE2CE010995E80EF91E115020F1AD
:100B000020E030E040E251E4C501B4010E94B10EA2
:100B10002B013C010E94CB0D4B01B12CA12C2AE0F2
:100B2000B501A401CE010E947D04E80EF91EC501A5
:100B3000B4010E94FA0D9B01AC01C301B2010E94F5
:100B4000E00C4B015C01DACFC701DF91CF911F911F
:100B5000FF90EF90DF90CF90BF90AF909F908F90DD
:100B60007F906F905F904F903F902F900895CF921D
:100B7000DF92EF92FF920F931F93CF93DF9300D0FA
:100B800000D01F92CDB7DEB767FD66C07C01862F0F
:100B900090E0603208F44FC0809725E0289FB001B4
:100BA000299F700D112468597F4F45E050E0CE0118
:100BB00001960E947C0C8E010F5F1F4F680185E03B
:100BC000C80ED11CF80141918F0161E0C7010E945C
:100BD00021040C151D05B1F740E061E0C7010E943A
:100BE0002104F701848590E00696628570E00E94FA
:100BF000230F8487892B79F4858590E0019663859E
:100C000029E3629F612D1124669570E06F5F7F4F2D
:100C10000E94230F858781E090E00F900F900F9046
:100C20000F900F90DF91CF911F910F91FF90EF9058
:100C3000DF90CF900895FC013796EE0FFF1FEE0D69
:100C4000FF1D008111810115110509F0B7CF45E0A5
:100C500050E068E670E0ABCF90E080E0DECF1F921E
:100C60000F920FB60F9211242F933F938F939F9360
:100C7000AF93BF938091260290912702A091280202
:100C8000B09129023091840123E0230F2D3758F5CC
:100C90000196A11DB11D209384018093260290939B
:100CA0002702A0932802B093290280918501909198
:100CB0008601A0918701B09188010196A11DB11D07
:100CC0008093850190938601A0938701B09388015A
:100CD000BF91AF919F918F913F912F910F900FBE38
:100CE0000F901F90189526E8230F0296A11DB11DA5
:100CF000D2CF1F920F920FB60F9211242F933F93D2
:100D00004F935F936F937F938F939F93AF93BF9313
:100D1000EF93FF9389E891E00E94ED02FF91EF913C
:100D2000BF91AF919F918F917F916F915F914F9103
:100D30003F912F910F900FBE0F901F9018951F920B
:100D40000F920FB60F9211242F938F939F93EF93CF
:100D5000FF93E0919901F0919A018081E0919F01C8
:100D6000F091A00182FD1BC090818091A2018F5F54
:100D70008F732091A301821741F0E091A201F0E06E
:100D8000E757FE4F958F8093A201FF91EF919F91BE
:100D90008F912F910F900FBE0F901F90189580810B
:100DA000F4CFE9E8F1E01382128288EE93E0A0E04C
:100DB000B0E084839583A683B78384E091E0918338
:100DC000808385EC90E09587848784EC90E097871A
:100DD000868780EC90E0918B808B81EC90E0938B08
:100DE000828B82EC90E0958B848B86EC90E0978BE5
:100DF000868B118E128E138E148EE2E7F2E0138230
:100E0000128286E191E09183808383E0848384E091
:100E1000858385E0868386E0878387E08087E6E3B5
:100E2000F2E08EE292E0978F868F82E392E0958FD8
:100E3000848F8AE292E091A380A312AE12AA13AA31
:100E400014AA15AA80E090E0AFE7B3E486AB97ABB5
:100E5000A0AFB1AF84E690E0A0E0B0E086A797A78E
:100E6000A0ABB1AB118E108E81E090E0938F828F9A
:100E700083AF80E090E0A0E0B0E480839183A28320
:100E8000B38340E050E060EA70E4448355836683B6
:100E9000778340E050E060E87FE3408751876287D6
:100EA000738784879587A687B78780E090E0A0E066
:100EB000BFE3808B918BA28BB38B80E090E0A0E2AC
:100EC000B1E4848B958BA68BB78B2FB7F894809168
:100ED000260290912702A0912802B09129022FBFEB
:100EE00046A557A560A971A9841B950BA60BB70B46
:100EF00082A393A3A4A3B5A30895CF93DF93CDB703
:100F0000DEB72E970FB6F894DEBF0FBECDBF789434
:100F100084B5826084BD84B5816084BD85B58260FE
:100F200085BD85B5816085BD80916E0081608093AF
:100F30006E00109281008091810082608093810018
:100F40008091810081608093810080918000816028
:100F5000809380008091B10084608093B100809183
:100F6000B00081608093B00080917A0084608093AB
:100F70007A0080917A00826080937A0080917A0072
:100F8000816080937A0080917A00806880937A00F3
:100F90001092C100E0919901F0919A0182E0808362
:100FA000E0919501F09196011082E0919701F09106
:100FB00098018FEC80831092A101E0919D01F09146
:100FC0009E0186E08083E0919B01F0919C018081ED
:100FD00080618083E0919B01F0919C018081886019
:100FE0008083E0919B01F0919C01808180688083E7
:100FF000E0919B01F0919C0180818F7D808384E54D
:1010000080937C0280E380937D0210927B02109299
:101010007E0210927F02E0E8F2E080E4DF011D92A0
:101020008A95E9F761E0809176020E94E40161E02F
:10103000809177020E94E40161E0809178020E9431
:10104000E40161E0809179020E94E40161E0809115
:101050007A020E94E40161E0809179020E94B60167
:1010600061E080917A020E94B60160E0809179028D
:101070000E94B6010E943A0261E0809179020E94CA
:10108000B60141E260E082E792E00E94210443E180
:1010900060E082E792E00E94210480917B0242ECB2
:1010A000813039F440EE60E082E792E00E94210452
:1010B00045E060E082E792E00E94210440E260E0C7
:1010C00082E792E00E94210449E060E082E792E03A
:1010D0000E94210480E00E944F041A8219828091AC
:1010E0007D0286958695869590917C02899FC001A8
:1010F0001124E981FA81E817F90768F440E061E01A
:1011000082E792E00E94210429813A812F5F3F4FBC
:101110003A832983E4CF80E00E944F0448E060E0F6
:1011200082E792E00E9421044CE060E082E792E0D6
:101130000E9421040E943A0240E860E082E792E0C7
:101140000E94210440E460E082E792E00E942104D2
:1011500061E088E00E94E40161E08CE00E94E4012B
:1011600061E08DE00E94E40160E083E10E94E4011F
:1011700060E082E10E94E40160E08EE00E94E40110
:1011800010928101109280010E947C0120E530E0E4
:10119000DC010E94370FCC24CA9423E0D22EE12C2C
:1011A000F12CA70196010E94850C309383012093B6
:1011B0008201AFEFB0E00E94A40C20E530E040E0F7
:1011C00050E00E94850CCA01B9010E94FC0D609399
:1011D0002A0270932B0280932C0290932D0260912F
:1011E0002E0270912F0280913002909131020E9464
:1011F000C40D072E000C880B990B0E94FC0D20E0FB
:1012000030E040EA51E40E94B10E20E030E04FE7C8
:1012100053E40E94520D0E94800360937C017093FE
:101220007D0180937E0190937F010E94C40D9B01FC
:10123000AC01AFEFB0E00E94A40CA70196010E94A0
:10124000850CCA01B9010E94FC0D609332027093B3
:1012500033028093340290933502809170028111A1
:1012600049C0E0915402F0915502C080D180E280E3
:10127000F380C0925C02D0925D02E0925E02F09236
:101280005F02E0915202F091530280819181A2812C
:10129000B3818093600290936102A0936202B09345
:1012A000630280906C0290906D02A0906E02B090EC
:1012B0006F02A5019401C701B6010E94AC0E181679
:1012C0004CF480925C0290925D02A0925E02B09219
:1012D0005F0210C08090680290906902A0906A023C
:1012E000B0906B02A5019401C701B6010E944D0D9B
:1012F00087FDE7CF81E0809370020E947C0120E5AA
:1013000030E0DC010E94370F2FEF33E040E050E087
:101310000E94850C3093830120938201809180018B
:1013200090918101892B09F01FC260912E0270916A
:101330002F0280913002909131020E94C40D072E3D
:10134000000C880B990B0E94FC0D20E030E040EA75
:1013500051E40E94B10E20E030E04FE753E40E94D8
:10136000520D0E94800360937C0170937D018093F5
:101370007E0190937F0141E050E0509381014093C2
:1013800080010E94C40D9B01AC01AFEFB0E00E9450
:10139000A40C2FEF33E040E050E00E94850CCA011E
:1013A000B9010E94FC0D6093320270933302809366
:1013B00034029093350280917002882309F42FC182
:1013C0008FB7F8942091260230912702409128028D
:1013D0005091290229873A874B875C878FBF80917C
:1013E000580290915902A0915A02B0915B0249852E
:1013F0005A856B857C85481B590B6A0B7B0B80914A
:10140000640290916502A0916602B091670248174C
:1014100059076A077B0708F402C1E0915202F09174
:1014200053024080518062807380E0915602F091B7
:101430005702A301920160817181828193810E9490
:10144000E00C6B017C0120916002309161024091BF
:10145000620250916302C301B2010E94E00C6983F1
:101460007A838B839C83209146023091470240917E
:10147000480250914902C701B6010E94B10E209165
:101480005C0230915D0240915E0250915F020E94C9
:10149000E10C4B015C0180925C0290925D02A09293
:1014A0005E02B0925F023090710231101CC0209138
:1014B00042023091430240914402509145026981B9
:1014C0007A818B819C810E94B10E9B01AC01C50188
:1014D000B4010E94E00C60935C0270935D02809303
:1014E0005E0290935F0280915C0290915D02A091F8
:1014F0005E02B0915F028D839E83AF83B8870091B7
:101500006C0210916D0290916E029E87A0916F0205
:10151000AD879801492F5A2F6D817E818F819885E3
:101520000E94AC0E18160CF0E3C0C801AE85BD8554
:1015300080935C0290935D02A0935E02B0935F0281
:10154000332009F4F0C020914202309143024091CF
:10155000440250914502C701B6010E94B10E6B01D1
:101560007C0120914A0230914B0240914C025091F3
:101570004D0269817A818B819C810E94B10E9B0111
:10158000AC0160915C0270915D0280915E0290916D
:101590005F020E94E00CA70196010E94E10C6B0122
:1015A0007C019B01AC01B8018E859D850E944D0D8B
:1015B00087FD16C00091680210916902B0916A021D
:1015C000BE87E0916B02ED8798014B2F5E2FB6012D
:1015D000C7010E944D0D87FD03C08601EE86FD8682
:1015E000E0915402F0915502C801AE85BD8580831B
:1015F0009183A283B3834092600250926102609211
:1016000062027092630229853A854B855C8520933E
:1016100058023093590240935A0250935B02409112
:101620008201509183015A834983BA01550F880B77
:10163000990B0E94FC0D4B015C01C0907C01D09085
:101640007D01E0907E01F0907F01A70196010E944C
:101650004D0D87FF6CC020E030E040EC5FE3C70138
:10166000B6010E94E00C60937C0170937D01809331
:101670007E0190937F01A501940160917C0170919E
:101680007D0180917E0190917F010E94E00C6B01B1
:101690007C0120E030E0A9010E94AC0E18160CF08D
:1016A00058C02AE939E949E95EE3C701B6010E9459
:1016B0004D0D87FF59C02FEF30E0A981BA810E94FC
:1016C000370F20E530E040E050E00E94850CCA0171
:1016D000B9010E94FC0D60937C0170937D018093A1
:1016E0007E0190937F0110928101109280013CC095
:1016F0008090680290906902A0906A02B0906B029C
:10170000A50194016D817E818F8198850E944D0D88
:1017100087FF16CF80925C0290925D02A0925E02DB
:10172000B0925F020DCFC12CD12C76011ACFA70148
:101730009601C501B4010E94AC0E18160CF09BCFA7
:1017400020E030E040EC5FE3C701B6010E94E10C0D
:101750008ACF2AE939E949E95EEBC701B6010E945F
:10176000AC0E18160CF4A7CFC0907C01D0907D0170
:10177000E0907E01F0907F0120E030E048E252E40A
:10178000C701B6010E94AC0E87FD9CC060E088E0F6
:101790000E94B60160E08CE00E94B60161E08DE03D
:1017A0000E94B60180E00E944F046AE271E082E785
:1017B00092E00E946E04C0908201D09083010D2CB3
:1017C000000CEE08FF082AE0B701A601F7FE0DC0E5
:1017D0006DE282E792E00E94B70544275527BA01DF
:1017E0004C195D096E097F092AE082E792E00E94A8
:1017F0007D0481E00E944F046BE371E082E792E098
:101800000E946E0440917C0150917D0160917E01A7
:1018100070917F0122E082E792E00E94C90483E098
:101820000E944F046AE471E082E792E00E946E0435
:1018300040912E0250912F0260913002709131023E
:1018400022E082E792E00E94C904E0EAF2E084919B
:10185000ECE8F2E0F491F983E8E7F2E0F491FD833B
:10186000FF2319F181110E948D012D81E22FF0E0FB
:10187000EE0FFF1FE85BFD4FA591B4918C9139816C
:10188000382399F06EE571E089E891E00E946E04DA
:1018900040917C0150917D0160917E0170917F01AA
:1018A00022E089E891E00E94C90440E050E0452B25
:1018B00009F423CD0E94D902882309F41ECD0E9489
:1018C00000001BCD20E030E040EF51E4C701B6013D
:1018D0000E944D0D181654F061E088E00E94B60198
:1018E00060E08CE00E94B60160E059CF60E088E0E3
:1018F0000E94B60161E0F5CFFB01DC0102C005905A
:101900000D9241505040D8F70895052E97FB1EF4D4
:1019100000940E949C0C57FD07D00E94AF0C07FC5E
:1019200003D04EF40C949C0C509540953095219525
:101930003F4F4F4F5F4F08959095809570956195FB
:101940007F4F8F4F9F4F08950E94D10CA59F900D00
:10195000B49F900DA49F800D911D11240895A1E2C4
:101960001A2EAA1BBB1BFD010DC0AA1FBB1FEE1F19
:10197000FF1FA217B307E407F50720F0A21BB30B64
:10198000E40BF50B661F771F881F991F1A9469F7E0
:1019900060957095809590959B01AC01BD01CF013C
:1019A0000895A29FB001B39FC001A39F700D811D38
:1019B0001124911DB29F700D811D1124911D089558
:1019C0005058BB27AA270E94F80C0C94720E0E9454
:1019D000640E38F00E946B0E20F039F49F3F19F42A
:1019E00026F40C94610E0EF4E095E7FB0C945B0E6C
:1019F000E92F0E94830E58F3BA1762077307840712
:101A0000950720F079F4A6F50C94A50E0EF4E09558
:101A10000B2EBA2FA02D0B01B90190010C01CA01A8
:101A2000A0011124FF27591B99F0593F50F4503E53
:101A300068F11A16F040A22F232F342F4427585F45
:101A4000F3CF469537952795A795F0405395C9F75D
:101A50007EF41F16BA0B620B730B840BBAF0915015
:101A6000A1F0FF0FBB1F661F771F881FC2F70EC0B4
:101A7000BA0F621F731F841F48F487957795679587
:101A8000B795F7959E3F08F0B0CF9395880F08F073
:101A90009927EE0F9795879508950E94370E08F4C1
:101AA00081E008950E94660D0C94720E0E946B0EE8
:101AB00058F00E94640E40F029F45F3F29F00C9426
:101AC0005B0E51110C94A60E0C94610E0E94830EB5
:101AD00068F39923B1F3552391F3951B550BBB275D
:101AE000AA2762177307840738F09F5F5F4F220FA2
:101AF000331F441FAA1FA9F335D00E2E3AF0E0E899
:101B000032D091505040E695001CCAF72BD0FE2FE2
:101B100029D0660F771F881FBB1F26173707480776
:101B2000AB07B0E809F0BB0B802DBF01FF2793582E
:101B30005F4F3AF09E3F510578F00C945B0E0C9489
:101B4000A60E5F3FE4F3983ED4F3869577956795AC
:101B5000B795F7959F5FC9F7880F911D9695879563
:101B600097F90895E1E0660F771F881FBB1F621782
:101B700073078407BA0720F0621B730B840BBA0B40
:101B8000EE1F88F7E09508950E94CB0D6894B1117F
:101B90000C94A60E08950E948B0E88F09F5798F023
:101BA000B92F9927B751B0F0E1F0660F771F881F62
:101BB000991F1AF0BA95C9F714C0B13091F00E947C
:101BC000A50EB1E008950C94A50E672F782F8827F5
:101BD000B85F39F0B93FCCF3869577956795B395A3
:101BE000D9F73EF490958095709561957F4F8F4F12
:101BF0009F4F0895E89409C097FB3EF49095809517
:101C0000709561957F4F8F4F9F4F9923A9F0F92FC2
:101C100096E9BB279395F695879577956795B79540
:101C2000F111F8CFFAF4BB0F11F460FF1BC06F5F26
:101C30007F4F8F4F9F4F16C0882311F096E911C038
:101C4000772321F09EE8872F762F05C0662371F059
:101C500096E8862F70E060E02AF09A95660F771F6D
:101C6000881FDAF7880F9695879597F90895990F49
:101C70000008550FAA0BE0E8FEEF16161706E80756
:101C8000F907C0F012161306E407F50798F0621B77
:101C9000730B840B950B39F40A2661F0232B242B4C
:101CA000252B21F408950A2609F4A140A6958FEF6B
:101CB000811D811D089597F99F6780E870E060E0BD
:101CC00008959FEF80EC089500240A9416161706D5
:101CD00018060906089500240A941216130614061D
:101CE00005060895092E0394000C11F4882352F080
:101CF000BB0F40F4BF2B11F460FF04C06F5F7F4F38
:101D00008F4F9F4F089557FD9058440F551F59F01E
:101D10005F3F71F04795880F97FB991F61F09F3FD8
:101D200079F087950895121613061406551FF2CF01
:101D30004695F1DF08C0161617061806991FF1CF51
:101D400086957105610508940895E894BB27662778
:101D50007727CB0197F908950E94370E08F48FEF8B
:101D600008950E94C40E0C94720E0E94640E38F006
:101D70000E946B0E20F0952311F00C945B0E0C94D6
:101D8000610E11240C94A60E0E94830E70F3959F91
:101D9000C1F3950F50E0551F629FF001729FBB2762
:101DA000F00DB11D639FAA27F00DB11DAA1F649FFE
:101DB0006627B00DA11D661F829F2227B00DA11DB1
:101DC000621F739FB00DA11D621F839FA00D611D37
:101DD000221F749F3327A00D611D231F849F600D58
:101DE000211D822F762F6A2F11249F5750409AF081
:101DF000F1F088234AF0EE0FFF1FBB1F661F771F0D
:101E0000881F91505040A9F79E3F510580F00C94D7
:101E10005B0E0C94A60E5F3FE4F3983ED4F38695D8
:101E200077956795B795F795E7959F5FC1F7FE2B77
:101E3000880F911D9695879597F908950E94370E02
:101E4000880B990B089597FB072E16F4009407D082
:101E500077FD09D00E943E0F07FC05D03EF4909517
:101E600081959F4F0895709561957F4F08950E94C9
:101E7000D10CB7FF0895821B930B0895AA1BBB1BBF
:101E800051E107C0AA1FBB1FA617B70710F0A61B7A
:101E9000B70B881F991F5A95A9F780959095BC019B
:101EA000CD010895EE0FFF1F0590F491E02D0994E8
:041EB000F894FFCFD4
:101EB400000000000F036F029C025C03CD02AB0222
:101EC400BF0200000000B7056F027D037C036E6152
:101ED4006E00696E66006F76660054656D70206FE3
:101EE4007065726163696F6E3A200054656D70208D
:101EF40073656E736164613A20005365C3B1616CAC
:101F040020646520636F6E74726F6C3A20005465B0
:0C1F14006D70657261747572613A200096
:00000001FF
