:020000040000FA
:100000000C9452010C947A010C947A010C947A01AC
:100010000C947A010C947A010C947A010C947A0174
:100020000C947A010C947A010C947A010C947A0164
:100030000C947A010C947A010C947A010C947A0154
:100040000C9458060C947A010C94C8060C94A206E1
:100050000C947A010C947A010C947A010C947A0134
:100060000C947A010C947A01000000000000005FFB
:1000700000000007000700147F147F14242A7F2A41
:10008000122313086462364955225000050300000C
:10009000001C2241000041221C0014083E081408E4
:1000A000083E0808005030000008080808080060F2
:1000B00060000020100804023E5149453E00427F86
:1000C000400042615149462141454B311814127F8D
:1000D0001027454545393C4A494930017109050316
:1000E0003649494936064949291E0036360000007E
:1000F0005636000008142241001414141414004150
:100100002214080201510906324979413E7E11113B
:10011000117E7F494949363E414141227F4141227A
:100120001C7F494949417F090909013E4149497AF2
:100130007F0808087F00417F41002040413F017F48
:10014000081422417F404040407F020C027F7F0420
:1001500008107F3E4141413E7F090909063E415159
:10016000215E7F09192946464949493101017F012C
:10017000013F4040403F1F2040201F3F4038403F4C
:100180006314081463070870080761514945430068
:100190007F41410002040810200041417F00040219
:1001A0000102044040404040000102040020545439
:1001B00054787F48444438384444442038444448C0
:1001C0007F3854545418087E0901020C5252523E92
:1001D0007F0804047800447D40002040443D007FB7
:1001E0001028440000417F40007C041804787C08FB
:1001F00004047838444444387C1414140808141453
:10020000187C7C080404084854545420043F44409B
:10021000203C4040207C1C2040201C3C4030403C86
:1002200044281028440C5050503C4464544C440022
:100230000836410000007F00000041360800100829
:100240000810080000000000000000002400270043
:100250002A0000000000250028002B0000000000FC
:1002600023002600290004040404040404040202F8
:100270000202020203030303030301020408102025
:100280004080010204081020010204081020000030
:100290000008000201000003040700000000000045
:1002A0000000FA0611241FBECFEFD8E0DEBFCDBF9D
:1002B00011E0A0E0B1E0E4E0FBE102C005900D92A6
:1002C000A435B107D9F722E0A4E5B1E001C01D9241
:1002D000A83AB207E1F711E0C2E5D1E004C02197E6
:1002E000FE010E947A0DC135D107C9F70E94A60709
:1002F0000C94800D0C94000080E480937C0080912D
:100300007A00806480937A0080917A0086FDFCCF29
:1003100080917800909179000895833081F028F4DD
:10032000813099F08230A9F008958730A9F08830A3
:10033000C9F08430B1F4809180008F7D03C080913A
:1003400080008F7780938000089584B58F7784BD77
:10035000089584B58F7DFBCF8091B0008F77809317
:10036000B00008958091B0008F7DF9CFCF93DF93D7
:10037000282F30E0F901E257FD4F8491F901E6584A
:10038000FD4FD491F901EA59FD4FC491CC23A1F05E
:1003900081110E948D01EC2FF0E0EE0FFF1FE45A57
:1003A000FD4FA591B491EC91ED2381E090E009F42B
:1003B00080E0DF91CF91089580E090E0FACF1F9325
:1003C000CF93DF93282F30E0F901E257FD4F84915E
:1003D000F901E658FD4FD491F901EA59FD4FC49156
:1003E000CC23A9F0162F81110E948D01EC2FF0E093
:1003F000EE0FFF1FEE5AFD4FA591B4918FB7F89401
:10040000EC91111108C0D095DE23DC938FBFDF91F2
:10041000CF911F910895DE2BF8CFCF93DF9390E01B
:10042000FC01E658FD4F24918A599D4FFC018491AF
:100430008823D1F090E0880F991FFC01E85BFD4F05
:10044000A591B491FC01EE5AFD4FC591D491611173
:100450000EC09FB7F8948C91E22FE0958E238C9379
:100460002881E223E8839FBFDF91CF9108958FB762
:10047000F894EC91E22BEC938FBFF6CF3FB7F89452
:1004800080916D0190916E01A0916F01B09170010A
:1004900026B5A89B05C02F3F19F00196A11DB11DDF
:1004A0003FBFBA2FA92F982F8827BC01CD01620F1B
:1004B000711D811D911D42E0660F771F881F991FD6
:1004C0004A95D1F708958F929F92AF92BF92CF92A3
:1004D000DF92EF92FF920E943E024B015C0184E6A4
:1004E000C82ED12CE12CF12C0E943E02681979090A
:1004F0008A099B09683E734081059105A8F321E0B4
:10050000C21AD108E108F10888EE880E83E0981E2F
:10051000A11CB11CC114D104E104F10429F7FF901E
:10052000EF90DF90CF90BF90AF909F908F90089505
:10053000AF92BF92CF92DF92EF92FF920F931F93F1
:10054000CF93DF936C017B018B01040F151FEB012F
:100550005E01AE18BF08C017D10759F06991D601E6
:10056000ED91FC910190F081E02DC6010995892B58
:1005700079F7C501DF91CF911F910F91FF90EF9017
:10058000DF90CF90BF90AF900895FC01538D448DC4
:10059000252F30E0842F90E0821B930B541710F02E
:1005A000CF96089501970895FC01918D828D98173B
:1005B00061F0A28DAE0FBF2FB11D5D968C91928D13
:1005C0009F5F9F73928F90E008958FEF9FEF089544
:1005D000FC01918D828D981731F0828DE80FF11D0D
:1005E000858D90E008958FEF9FEF0895FC01918D28
:1005F000228D892F90E0805C9F4F821B91098F7321
:100600009927089581E791E00E94F60221E0892B65
:1006100009F420E0822F089580E090E0892B29F0F2
:100620000E94020381110C9400000895FC01A48D26
:10063000A80FB92FB11DA35ABF4F2C91848D90E004
:1006400001968F739927848FA689B7892C93A089E7
:10065000B1898C91837080648C93938D848D981371
:1006600006C00288F389E02D80818F7D8083089504
:10067000EF92FF920F931F93CF93DF93EC0181E0F2
:10068000888F9B8D8C8D98131AC0E889F989808199
:1006900085FF15C09FB7F894EE89FF896083E889CC
:1006A000F98980818370806480839FBF81E090E0BE
:1006B000DF91CF911F910F91FF90EF900895F62E4B
:1006C0000B8D10E00F5F1F4F0F731127E02E8C8DE5
:1006D0008E110CC00FB607FCFACFE889F98980812A
:1006E00085FFF5CFCE010E941603F1CFEB8DEC0F05
:1006F000FD2FF11DE35AFF4FF0829FB7F8940B8F47
:10070000EA89FB8980818062CFCFCF93DF93EC01B0
:10071000888D8823B9F0AA89BB89E889F9898C91E9
:1007200085FD03C0808186FD0DC00FB607FCF7CFA5
:100730008C9185FFF2CF808185FFEDCFCE010E94A5
:100740001603E9CFDF91CF910895089590E080E0FE
:1007500008958F929F92AF92BF92CF92DF92EF92C5
:10076000FF926B017C0180915C0181110FC080E0E0
:1007700090E0A8ECB1E48093580190935901A093C4
:100780005A01B0935B0181E080935C018FB7F894CC
:1007900040910E0250910F0260911002709111026F
:1007A0008FBF8091540190915501A0915601B09155
:1007B0005701481B590B6A0B7B0B443651056105E9
:1007C000710508F456C08C599F4FAF4FBF4F8093AF
:1007D000540190935501A0935601B0935701809016
:1007E000580190905901A0905A01B0905B0120E00F
:1007F00030E048EC52E4C701B6010E94D90C20E079
:1008000030E04AE754E40E947A0B20E030E040E216
:1008100051E40E947A0B2AE037ED43E65FE30E9441
:100820007A0BA50194010E94090B6B017C0120E069
:1008300030E048EC51E4C501B4010E94080B9B0173
:10084000AC01C701B6010E94080B27E137EB41ED6F
:1008500058E30E94080B20E030E040EA50E40E9498
:10086000080B609358017093590180935A0190933B
:100870005B01609158017091590180915A019091EA
:100880005B01FF90EF90DF90CF90BF90AF909F9073
:100890008F900895EF92FF920F931F93CF93DF9362
:1008A000EC01042F8E810E94DF0160E088850E94A8
:1008B000DF01FC80ED8018E0602F661F6627661F51
:1008C0008E2D0E94DF01000F61E08F2D0E94DF015D
:1008D00060E08F2D0E94DF01115071F761E0888583
:1008E000DF91CF911F910F91FF90EF900C94DF015A
:1008F000CF93DF93CAE5D2E01C8690E06B8529E3B5
:10090000629F612D1124669570E06F5F7F4F0E949A
:100910004B0D8D8740E860E0CE010E944A044D8572
:10092000406460E0CE01DF91CF910C944A04FB015A
:1009300001900020E9F73197AF01461B570BDC010E
:10094000ED91FC910280F381E02D09948F929F92AA
:10095000AF92BF92EF92FF920F931F93CF93DF93CB
:10096000CDB7DEB7A1970FB6F894DEBF0FBECDBFEF
:100970007C01FA01CB0119A2223008F42AE08E0191
:100980000F5D1F4F822E912CB12CA12CBF01A50110
:1009900094010E94D70AF901CA016A300CF5605D22
:1009A000D8016E938D01232B242B252B79F790E012
:1009B00080E0109721F0BD01C7010E949704A19625
:1009C0000FB6F894DEBF0FBECDBFDF91CF911F9160
:1009D0000F91FF90EF90BF90AF909F908F900895F0
:1009E000695CDECF2F923F924F925F926F927F921F
:1009F0008F929F92AF92BF92CF92DF92EF92FF922F
:100A00001F93CF93DF93EC016A017B01722EAB0140
:100A10009601CB01B6010E94460D6EE171E0811195
:100A200026C046015701E894B7F82FEF3FEF4FE794
:100A30005FE7C501B4010E94460D81110CC02FEF84
:100A40003FEF4FE75FE7C501B4010E94750B62E21B
:100A500071E0181664F02FEF3FEF4FE75FE4C70136
:100A6000B6010E94D40C1816B4F466E271E0CE010F
:100A7000DF91CF911F91FF90EF90DF90CF90BF90CB
:100A8000AF909F908F907F906F905F904F903F902E
:100A90002F900C9497042FEF3FEF4FE75FECC701C7
:100AA000B6010E94750B87FDE0CF20E030E0A90180
:100AB000C701B6010E94750B312C212C87FF0DC098
:100AC000E881F9810190F081E02D6DE2CE01099578
:100AD0001C01F7FAF094F7F8F09410E060E070E091
:100AE00080E09FE3711641F020E030E040E251E405
:100AF0000E947A0B1F5FF6CFA70196010E94090B97
:100B00002B013C010E94F30B4B015C012AE0BC016C
:100B1000A401CE010E94A6047C01E20CF31C112367
:100B2000E1F1C501B4010E94220C9B01AC01C3019B
:100B3000B2010E94080B4B015C01E881F981019030
:100B4000F081E02D6EE2CE010995E80EF91E1150FC
:100B500020F120E030E040E251E4C501B4010E9400
:100B6000D90C2B013C010E94F30B4B01B12CA12CA1
:100B70002AE0B501A401CE010E94A604E80EF91EE8
:100B8000C501B4010E94220C9B01AC01C301B2015A
:100B90000E94080B4B015C01DACFC701DF91CF91B6
:100BA0001F91FF90EF90DF90CF90BF90AF909F90FC
:100BB0008F907F906F905F904F903F902F9008950F
:100BC000CF92DF92EF92FF920F931F93CF93DF9319
:100BD00000D000D01F92CDB7DEB767FD66C07C01A4
:100BE000862F90E0603208F44FC0809725E0289F60
:100BF000B001299F700D112468597F4F45E050E0E6
:100C0000CE0101960E94A40A8E010F5F1F4F68015A
:100C100085E0C80ED11CF80141918F0161E0C70148
:100C20000E944A040C151D05B1F740E061E0C701C0
:100C30000E944A04F701848590E00696628570E080
:100C40000E944B0D8487892B79F4858590E001966D
:100C5000638529E3629F612D1124669570E06F5FC3
:100C60007F4F0E944B0D858781E090E00F900F90A1
:100C70000F900F900F90DF91CF911F910F91FF90E8
:100C8000EF90DF90CF900895FC013796EE0FFF1F95
:100C9000EE0DFF1D008111810115110509F0B7CF7F
:100CA00045E050E068E670E0ABCF90E080E0DECF5A
:100CB0001F920F920FB60F9211242F933F938F9391
:100CC0009F93AF93BF9380910E0290910F02A091DA
:100CD0001002B091110230916C0123E0230F2D37E7
:100CE00058F50196A11DB11D20936C0180930E0251
:100CF00090930F02A0931002B093110280916D01A6
:100D000090916E01A0916F01B09170010196A11DAB
:100D1000B11D80936D0190936E01A0936F01B0930C
:100D20007001BF91AF919F918F913F912F910F9043
:100D30000FBE0F901F90189526E8230F0296A11D55
:100D4000B11DD2CF1F920F920FB60F9211242F9385
:100D50003F934F935F936F937F938F939F93AF9343
:100D6000BF93EF93FF9381E791E00E941603FF91F9
:100D7000EF91BF91AF919F918F917F916F915F9113
:100D80004F913F912F910F900FBE0F901F9018958C
:100D90001F920F920FB60F9211242F938F939F9350
:100DA000EF93FF93E0918101F09182018081E091C6
:100DB0008701F091880182FD1BC0908180918A019A
:100DC0008F5F8F7320918B01821741F0E0918A0130
:100DD000F0E0EF58FE4F958F80938A01FF91EF91DD
:100DE0009F918F912F910F900FBE0F901F9018958C
:100DF0008081F4CFE1E7F1E01382128288EE93E084
:100E0000A0E0B0E084839583A683B78384E091E07B
:100E10009183808385EC90E09587848784EC90E0D3
:100E20009787868780EC90E0918B808B81EC90E0B7
:100E3000938B828B82EC90E0958B848B86EC90E098
:100E4000978B868B118E128E138E148EEAE5F2E04C
:100E50001382128286E191E09183808383E0848310
:100E600084E0858385E0868386E0878387E08087CA
:100E7000EEE1F2E086E192E0978F868F8AE192E0E0
:100E8000958F848F82E192E091A380A312AE12AA83
:100E900013AA14AA15AA80E090E0AFE7B3E486ABEA
:100EA00097ABA0AFB1AF84E690E0A0E0B0E086A73A
:100EB00097A7A0ABB1AB118E108E81E090E0938F1D
:100EC000828F83AF80E090E0A0E0B0E480839183E4
:100ED000A283B38340E050E060EA70E4448355832A
:100EE0006683778340E050E060E87FE34087518786
:100EF0006287738784879587A687B78780E090E0AD
:100F0000A0E0BFE3808B918BA28BB38B80E090E05D
:100F1000A0E2B1E4848B958BA68BB78B2FB7F894A6
:100F200080910E0290910F02A0911002B0911102D7
:100F30002FBF46A557A560A971A9841B950BA60BC9
:100F4000B70B82A393A3A4A3B5A30895789484B503
:100F5000826084BD84B5816084BD85B5826085BDB5
:100F600085B5816085BD80916E00816080936E0043
:100F70001092810080918100826080938100809135
:100F800081008160809381008091800081608093E6
:100F900080008091B10084608093B1008091B000A6
:100FA00081608093B00080917A00846080937A00A1
:100FB00080917A00826080937A0080917A008160CB
:100FC00080937A0080917A00806880937A001092F2
:100FD000C100E0918101F091820182E08083E09183
:100FE0007D01F0917E011082E0917F01F0918001FE
:100FF0008FEC808310928901E0918501F091860148
:1010000086E08083E0918301F0918401808180619A
:101010008083E0918301F0918401808188608083E6
:10102000E0918301F0918401808180688083E09168
:101030008301F091840180818F7D808384E580939A
:10104000640280E38093650210926302109266024C
:1010500010926702E8E6F2E080E4DF011D928A95D3
:10106000E9F761E080915E020E940D0261E08091EB
:101070005F020E940D0261E0809160020E940D02F9
:1010800061E0809161020E940D0261E08091620244
:101090000E940D0261E0809161020E94DF0161E027
:1010A000809162020E94DF0160E0809161020E94F3
:1010B000DF010E94630261E0809161020E94DF0112
:1010C00041E260E08AE592E00E944A0443E160E088
:1010D0008AE592E00E944A048091630242EC8130EA
:1010E00039F440EE60E08AE592E00E944A0445E06F
:1010F00060E08AE592E00E944A0440E260E08AE50E
:1011000092E00E944A0449E060E08AE592E00E9491
:101110004A0480E00E947804D0E0C0E0809165023B
:1011200086958695869590916402899FC0011124C9
:10113000C817D90740F440E061E08AE592E00E94D8
:101140004A042196EBCF80E00E94780448E060E0FA
:101150008AE592E00E944A044CE060E08AE592E071
:101160000E944A040E94630240E860E08AE592E03F
:101170000E944A0440E460E08AE592E00E944A044A
:1011800041E260E08AE592E00E944A044CEB60E0B4
:101190008AE592E00E944A0440E260E08AE592E03B
:1011A0000E944A0461E088E00E940D0261E08CE048
:1011B0000E940D0261E08DE00E940D0260E083E17B
:1011C0000E940D0260E082E10E940D0260E08EE06C
:1011D0000E940D0210926901109268010E947C0128
:1011E00020E530E0DC010E945F0DCC24CA9423E0AE
:1011F000D22EE12CF12CA70196010E94AD0A30936A
:101200006B0120936A01AFEFB0E00E94CC0A20E5A9
:1012100030E040E050E00E94AD0ACA01B9010E94EE
:10122000240C609312027093130280931402909323
:101230001502609116027091170280911802909128
:1012400019020E94EC0B072E000C880B990B0E94D0
:10125000240C20E030E040EA51E40E94D90C20E068
:1012600030E04FE753E40E947A0B0E94A903609399
:1012700064017093650180936601909367010E94F9
:10128000EC0B9B01AC01AFEFB0E00E94CC0AA701D0
:1012900096010E94AD0ACA01B9010E94240C609314
:1012A0001A0270931B0280931C0290931D0280917E
:1012B0005802811149C0E0913C02F0913D02C0808A
:1012C000D180E280F380C0924402D0924502E09245
:1012D0004602F0924702E0913A02F0913B0280818F
:1012E0009181A281B3818093480290934902A09397
:1012F0004A02B0934B028090540290905502A09005
:101300005602B0905702A5019401C701B6010E9490
:10131000D40C18164CF48092440290924502A0928C
:101320004602B092470210C0809050029090510245
:10133000A0905202B0905302A5019401C701B601DA
:101340000E94750B87FDE7CF81E0809358028824C7
:101350008A9483E0982EA12CB12CC0E0D0E001E06B
:1013600010E00E947C0120E530E0DC010E945F0D6E
:10137000A50194010E94AD0A30936B0120936A018C
:101380008091680190916901892B51F56091160255
:101390007091170280911802909119020E94EC0B33
:1013A000072E000C880B990B0E94240C20E030E0E3
:1013B00040EA51E40E94D90C20E030E04FE753E4CA
:1013C0000E947A0B0E94A9036093640170936501E7
:1013D00080936601909367011093690100936801FF
:1013E000C0906401D0906501E0906601F0906701C3
:1013F00020E030E048E252E4C701B6010E94D40C7C
:1014000087FD88C060E088E00E94DF0160E08CE03A
:101410000E94DF0161E08DE00E94DF0183E10E9414
:10142000B601019709F053C080E00E9478046AE297
:1014300071E08AE592E00E949704C0906A01D09022
:101440006B010D2C000CEE08FF082AE0B701A60185
:10145000F7FE0DC06DE28AE592E00E94E0054427A8
:101460005527BA014C195D096E097F092AE08AE502
:1014700092E00E94A60481E00E94780461E371E09A
:101480008AE592E00E9497044091640150916501C1
:10149000609166017091670122E08AE592E00E9406
:1014A000F20483E00E94780469E371E08AE592E047
:1014B0000E94970440911602509117026091180201
:1014C0007091190222E08AE592E00E94F20482E122
:1014D0000E94B601019799F465E471E081E791E01B
:1014E0000E949704409164015091650160916601EA
:1014F0007091670122E081E791E00E94F204209759
:1015000009F42FCF0E940203882309F42ACF0E94F6
:10151000000027CF20E030E040EF51E4C701B601E2
:101520000E94750B181654F061E088E00E94DF01FC
:1015300060E08CE00E94DF0160E06DCF60E088E059
:101540000E94DF0161E0F5CFFB01DC0102C00590E4
:101550000D9241505040D8F70895052E97FB1EF488
:1015600000940E94C40A57FD07D00E94D70A07FCC6
:1015700003D04EF40C94C40A5095409530952195B3
:101580003F4F4F4F5F4F08959095809570956195AF
:101590007F4F8F4F9F4F08950E94F90AA59F900D8E
:1015A000B49F900DA49F800D911D11240895A1E278
:1015B0001A2EAA1BBB1BFD010DC0AA1FBB1FEE1FCD
:1015C000FF1FA217B307E407F50720F0A21BB30B18
:1015D000E40BF50B661F771F881F991F1A9469F794
:1015E00060957095809590959B01AC01BD01CF01F0
:1015F0000895A29FB001B39FC001A39F700D811DEC
:101600001124911DB29F700D811D1124911D08950B
:101610005058BB27AA270E94200B0C949A0C0E94BA
:101620008C0C38F00E94930C20F039F49F3F19F491
:1016300026F40C94890C0EF4E095E7FB0C94830CD3
:10164000E92F0E94AB0C58F3BA176207730784079F
:10165000950720F079F4A6F50C94CD0C0EF4E095E6
:101660000B2EBA2FA02D0B01B90190010C01CA015C
:10167000A0011124FF27591B99F0593F50F4503E07
:1016800068F11A16F040A22F232F342F4427585FF9
:10169000F3CF469537952795A795F0405395C9F711
:1016A0007EF41F16BA0B620B730B840BBAF09150C9
:1016B000A1F0FF0FBB1F661F771F881FC2F70EC068
:1016C000BA0F621F731F841F48F48795779567953B
:1016D000B795F7959E3F08F0B0CF9395880F08F027
:1016E0009927EE0F9795879508950E945F0C08F44F
:1016F00081E008950E948E0B0C949A0C0E94930C2A
:1017000058F00E948C0C40F029F45F3F29F00C94B3
:10171000830C51110C94CE0C0C94890C0E94AB0CD0
:1017200068F39923B1F3552391F3951B550BBB2710
:10173000AA2762177307840738F09F5F5F4F220F55
:10174000331F441FAA1FA9F335D00E2E3AF0E0E84C
:1017500032D091505040E695001CCAF72BD0FE2F96
:1017600029D0660F771F881FBB1F2617370748072A
:10177000AB07B0E809F0BB0B802DBF01FF279358E2
:101780005F4F3AF09E3F510578F00C94830C0C9417
:10179000CE0C5F3FE4F3983ED4F38695779567953A
:1017A000B795F7959F5FC9F7880F911D9695879517
:1017B00097F90895E1E0660F771F881FBB1F621736
:1017C00073078407BA0720F0621B730B840BBA0BF4
:1017D000EE1F88F7E09508950E94F30B6894B1110D
:1017E0000C94CE0C08950E94B30C88F09F5798F08B
:1017F000B92F9927B751B0F0E1F0660F771F881F16
:10180000991F1AF0BA95C9F714C0B13091F00E942F
:10181000CD0CB1E008950C94CD0C672F782F88275C
:10182000B85F39F0B93FCCF3869577956795B39556
:10183000D9F73EF490958095709561957F4F8F4FC5
:101840009F4F0895E89409C097FB3EF490958095CA
:10185000709561957F4F8F4F9F4F9923A9F0F92F76
:1018600096E9BB279395F695879577956795B795F4
:10187000F111F8CFFAF4BB0F11F460FF1BC06F5FDA
:101880007F4F8F4F9F4F16C0882311F096E911C0EC
:10189000772321F09EE8872F762F05C0662371F00D
:1018A00096E8862F70E060E02AF09A95660F771F21
:1018B000881FDAF7880F9695879597F90895990FFD
:1018C0000008550FAA0BE0E8FEEF16161706E8070A
:1018D000F907C0F012161306E407F50798F0621B2B
:1018E000730B840B950B39F40A2661F0232B242B00
:1018F000252B21F408950A2609F4A140A6958FEF1F
:10190000811D811D089597F99F6780E870E060E070
:1019100008959FEF80EC089500240A941616170688
:1019200018060906089500240A94121613061406D0
:1019300005060895092E0394000C11F4882352F033
:10194000BB0F40F4BF2B11F460FF04C06F5F7F4FEB
:101950008F4F9F4F089557FD9058440F551F59F0D2
:101960005F3F71F04795880F97FB991F61F09F3F8C
:1019700079F087950895121613061406551FF2CFB5
:101980004695F1DF08C0161617061806991FF1CF05
:1019900086957105610508940895E894BB2766272C
:1019A0007727CB0197F908950E945F0C08F48FEF19
:1019B00008950E94EC0C0C949A0C0E948C0C38F048
:1019C0000E94930C20F0952311F00C94830C0C943E
:1019D000890C11240C94CE0C0E94AB0C70F3959FD3
:1019E000C1F3950F50E0551F629FF001729FBB2716
:1019F000F00DB11D639FAA27F00DB11DAA1F649FB2
:101A00006627B00DA11D661F829F2227B00DA11D64
:101A1000621F739FB00DA11D621F839FA00D611DEA
:101A2000221F749F3327A00D611D231F849F600D0B
:101A3000211D822F762F6A2F11249F5750409AF034
:101A4000F1F088234AF0EE0FFF1FBB1F661F771FC0
:101A5000881F91505040A9F79E3F510580F00C948B
:101A6000830C0C94CE0C5F3FE4F3983ED4F3869540
:101A700077956795B795F795E7959F5FC1F7FE2B2B
:101A8000880F911D9695879597F908950E945F0C90
:101A9000880B990B089597FB072E16F4009407D036
:101AA00077FD09D00E94660D07FC05D03EF49095A5
:101AB00081959F4F0895709561957F4F08950E947D
:101AC000F90AB7FF0895821B930B0895AA1BBB1B4D
:101AD00051E107C0AA1FBB1FA617B70710F0A61B2E
:101AE000B70B881F991F5A95A9F780959095BC014F
:101AF000CD010895EE0FFF1F0590F491E02D09949C
:101B0000F894FFCF0000000038039802C502850357
:101B1000F602D402E80200000000E0059802A603E5
:101B2000A5036E616E00696E66006F766600542EC6
:101B30006F703A2000542E73656E3A200053206374
:101B40006F6E74726F6C3A200054656D70657261CF
:081B5000747572613A20000077
:107E0000112484B714BE81FFF0D085E080938100F7
:107E100082E08093C00088E18093C10086E0809377
:107E2000C20080E18093C4008EE0C9D0259A86E02C
:107E300020E33CEF91E0309385002093840096BBD3
:107E4000B09BFECF1D9AA8958150A9F7CC24DD24C4
:107E500088248394B5E0AB2EA1E19A2EF3E0BF2EE7
:107E6000A2D0813461F49FD0082FAFD0023811F036
:107E7000013811F484E001C083E08DD089C08234E0
:107E800011F484E103C0853419F485E0A6D080C0E4
:107E9000853579F488D0E82EFF2485D0082F10E0AE
:107EA000102F00270E291F29000F111F8ED06801E7
:107EB0006FC0863521F484E090D080E0DECF843638
:107EC00009F040C070D06FD0082F6DD080E0C81688
:107ED00080E7D80618F4F601B7BEE895C0E0D1E017
:107EE00062D089930C17E1F7F0E0CF16F0E7DF06D8
:107EF00018F0F601B7BEE89568D007B600FCFDCFD4
:107F0000A601A0E0B1E02C9130E011968C91119780
:107F100090E0982F8827822B932B1296FA010C0160
:107F200087BEE89511244E5F5F4FF1E0A038BF0790
:107F300051F7F601A7BEE89507B600FCFDCF97BE46
:107F4000E89526C08437B1F42ED02DD0F82E2BD052
:107F50003CD0F601EF2C8F010F5F1F4F84911BD097
:107F6000EA94F801C1F70894C11CD11CFA94CF0C13
:107F7000D11C0EC0853739F428D08EE10CD085E9AC
:107F80000AD08FE07ACF813511F488E018D01DD067
:107F900080E101D065CF982F8091C00085FFFCCF94
:107FA0009093C60008958091C00087FFFCCF809118
:107FB000C00084FD01C0A8958091C6000895E0E648
:107FC000F0E098E1908380830895EDDF803219F02E
:107FD00088E0F5DFFFCF84E1DECF1F93182FE3DFCA
:107FE0001150E9F7F2DF1F91089580E0E8DFEE27F6
:047FF000FF270994CA
:027FFE00040479
:00000001FF
