:1000000014C009C117C121C020C01FC022C11DC01A
:100010001CC01BC01AC019C018C017C016C015C01C
:1000200014C013C012C011C010C011241FBECFE5F0
:10003000D1E0DEBFCDBF10E0A0E6B0E001C01D9270
:10004000A936B107E1F7C1D01BC1DACF80916500B5
:10005000909166008330910509F448C08430910581
:100060003CF48130910581F0029709F0A5C024C0CD
:100070008530910509F45BC0853091050CF445C0CD
:10008000069709F099C08BC082E388BB809160001D
:1000900090916100885A92400CF48EC08091620069
:1000A000882309F489C082E090E0909368008093EF
:1000B0006700109262006EC08091600090916100B4
:1000C0008C3C910574F4809163009091640080FDF4
:1000D00004C0C19AC59AC39A3DC0C198C598C39837
:1000E00039C0C398C49883E090E050C0C398C29AC6
:1000F000C19AC59A80916000909161008035910508
:100100000CF45AC084E090E041C0C29AC198C598EE
:10011000C498C09AC69A8091600090916100885AF4
:1001200092400CF449C0C49885E090E02FC08091C3
:100130006000909161008C3C910504F58091630012
:100140009091640080FD03C088B3816402C088B3CD
:100150008E7B88BB209160003091610080916300AC
:10016000909164002817390739F1809160009091CF
:10017000610090936400809363001EC088B38E7BFF
:1001800088BB88B3826288BB86E090E09093680069
:100190008093670010926100109260000DC0809102
:1001A0006000909161008434910534F081E090E02A
:1001B0009093680080936700809167009091680039
:1001C0009093660080936500089518BA10BA12BA29
:1001D0008FE787BB83EF81BB8BB780648BBF85B70D
:1001E000836085BF8BB780688BBF85B78C6085BF08
:1001F00010BE85E083BF89B7826089BF789481E0B3
:1002000090E09093680080936700909366008093DD
:1002100065001CDFFECF1F920F920FB60F921124C4
:100220008F9381E0809362008F910F900FBE0F90AB
:100230001F9018951F920F920FB60F9211248F9353
:1002400081E0809362008F910F900FBE0F901F90FE
:1002500018951F920F920FB60F9211248F939F93B0
:10026000809160009091610001969093610080936D
:1002700060009F918F910F900FBE0F901F90189567
:04028000F894FFCF20
:00000001FF
