:1000000014C0F5C003C121C020C01FC00EC11DC057
:100010001CC01BC01AC019C018C017C016C015C01C
:1000200014C013C012C011C010C011241FBECFE5F0
:10003000D1E0DEBFCDBF10E0A0E6B0E001C01D9270
:10004000A936B107E1F7ADD007C1DACF80916500DD
:10005000909166008330910509F444C08430910585
:100060003CF48130910561F0029709F091C020C005
:100070008430910509F445C0059709F089C054C042
:1000800082E388BB8091600090916100885A924021
:100090000CF47EC080916200882309F479C082E06C
:1000A00090E09093680080936700109262006CC0AB
:1000B00080916000909161008C3C910574F4809176
:1000C00063009091640080FD04C0C19AC59AC39AF0
:1000D0003EC0C198C598C3983AC0C398C49883E0FD
:1000E00090E04EC0C398C29AC19AC59A80916000B0
:1000F00090916100803591050CF44AC084E090E055
:100100003FC088B3847088BBC198C598C498C09A12
:10011000C69A8091600090916100885A9240C4F123
:10012000C49885E090E02CC08091600090916100BF
:100130008C3C910504F5809163009091640080FDF2
:1001400003C088B3816402C088B38E7B88BB2091D2
:1001500060003091610080916300909164002817E5
:100160003907B1F080916000909161009093640034
:10017000809363000DC088B38E7B88BB81E090E0E4
:100180009093680080936700109261001092600065
:10019000809167009091680090936600809365005D
:1001A000089518BA10BA12BA8FE787BB83EF81BBE4
:1001B0008BB780648BBF85B7836085BF8BB7806842
:1001C0008BBF85B78C6085BF10BE85E083BF89B7C4
:1001D000826089BF789481E090E09093680080937A
:1001E0006700909366008093650030DFFECF1F921A
:1001F0000F920FB60F9211248F9381E080936200CB
:100200008F910F900FBE0F901F9018951F920F9215
:100210000FB60F9211248F9381E0809362008F912B
:100220000F900FBE0F901F9018951F920F920FB650
:100230000F9211248F939F938091600090916100A1
:10024000019690936100809360009F918F910F9031
:0C0250000FBE0F901F901895F894FFCF80
:00000001FF
