:1000000014C044C052C021C020C01FC01EC01DC0AB
:100010001CC01BC01AC019C018C017C016C015C01C
:1000200014C013C012C011C010C011241FBECFE5F0
:10003000D1E0DEBFCDBF10E0A0E6B0E001C01D9270
:10004000A136B107E1F702D03FC0DACF18BA10BA33
:1000500012BA88E087BB8BEF81BB8BB780648BBF04
:1000600085B7836085BF8BB780688BBF85B78C6091
:1000700085BF10BE85E083BF89B7826089BF789451
:10008000809160008823E1F3C39AFACF1F920F9208
:100090000FB60F9211248F9381E0809360008F91AF
:1000A0000F900FBE0F901F9018951F920F920FB6D2
:1000B0000F9211248F9381E0809360008F910F90B5
:0C00C0000FBE0F901F901895F894FFCF12
:00000001FF
